:020000040800F2
:1000000010520020F50200085F1F0008B11B000815
:100010005D1F0008550700082926000800000000A1
:100020000000000000000000000000003502000891
:100030005707000800000000910200087D22000818
:100040000F0300080F0300080F0300080F03000848
:100050000F0300080F0300080F03000859070008EA
:100060000F0300080F0300085F0700080F030008D4
:100070000F0300080F0300080F0300080F03000818
:100080000F0300080F0300080F0300080000000022
:1000900000000000000000000000000065070008EC
:1000A0000F0300080F0300082D2300080F030008AA
:1000B0000F0300080F0300080F0300080F030008D8
:1000C0000F0300080F0300080F0300080F030008C8
:1000D0000F0300080F0300080F03000800000000D2
:1000E0000F0300080F0300080F03000800000000C2
:1000F0000000000000000000000000000F030008E6
:10010000000000000F0300080F0300080F030008A1
:1001100000000000000000000000000000000000DF
:100120000F0300080F0300080F0300080F03000867
:100130000F030008000000000000000000000000A5
:100140000000000000000000000000000F03000895
:100150000F0300080F0300080F0300080F03000837
:100160000F0300080F03000800000000000000005B
:10017000000000000000000000000000000000007F
:10018000000000000F030008000000000000000055
:100190000F03000800F002F800F03CF80AA090E815
:1001A000000C82448344AAF10107DA4501D100F032
:1001B00031F8AFF2090EBAE80F0013F0010F18BFC3
:1001C000FB1A43F0010318471C4700003C4700009E
:1001D000103A24BF78C878C1FAD8520724BF30C873
:1001E00030C144BF04680C60704700000023002445
:1001F00000250026103A28BF78C1FBD8520728BF37
:1002000030C148BF0B6070471FB503F0A9FF1FBD89
:1002100010B510BD00F0D0F91146FFF7F5FF02F060
:1002200014FA00F0EEF903B4FFF7F2FF03BC00F09C
:10023000F5F900002C4B19680868B0E8F04F80F31E
:100240000988BFF36F8F4FF0000080F3118870476B
:100250000000000008480068006880F308884FF03C
:10026000000080F3148862B661B6BFF34F8FBFF30E
:100270006F8F00DF00BF00BF08ED00E0DFF80C006B
:10028000016841F470010160704700BF88ED00E033
:10029000EFF30980BFF36F8F134B1A681EF0100F36
:1002A00008BF20ED108A20E9F04F106009B44FF02C
:1002B000500080F31188BFF34F8FBFF36F8F03F0AF
:1002C00001FA4FF0000080F3118809BC1968086832
:1002D000B0E8F04F1EF0100F08BFB0EC108A80F3AA
:1002E0000988BFF36F8F704734000020EFF305805B
:1002F000704700000948804709480047FEE7FEE7CD
:10030000FEE7FEE7FEE7FEE7FEE7FEE7FEE7FEE7C5
:1003100004480549054A064B704700001D230008A4
:1003200095010008104C002010520020104E0020B3
:10033000104E002053EA020C00F069802DE9F04BCA
:100340004FF00006002B1FBFB3FA83F503FA05F444
:1003500024FA05F65E4012BF1643B2FA82F502FA9D
:1003600005F4C5F120051EBF22FA05FC44EA0C0481
:10037000203556EA044C4FEA144418BF641C4FF071
:1003800000084FF00009904271EB030C39D30029AB
:1003900019BFB1FA81F701FA07F6B0FA80F700FA4F
:1003A00007F6C7F120071EBF20FA07FC46EA0C0635
:1003B0002037B6FBF4FCA7EB0507103F07F01F0B37
:1003C000CBF120060CFA0BFB2CFA06F644BFB34621
:1003D0000026202FA4BF5E464FF0000B5BEA060C00
:1003E00008BF4FF0010B19EB0B09ABFB027C48EB8C
:1003F0000608C01B06FB02CC0BFB03CC71EB0C0107
:10040000C1E70B46024641464846BDE8F08B13B5AE
:100410004FF000004FF00001AFF30080BDE81C403A
:100420007047032A40F2308010F0030C00F0158072
:1004300011F8013BBCF1020F624498BF11F801CBE7
:1004400000F8013B38BF11F8013BA2F1040298BF4C
:1004500000F801CB38BF00F8013B11F0030300F0B6
:100460005780083AC0F0088051F8043B083A51F828
:1004700004CBA0E80810F5E7121D5CBF51F8043B5F
:1004800040F8043BAFF30080D20724BF11F8013BD2
:1004900011F801CB48BF11F8012B24BF00F8013B34
:1004A00000F801CB48BF00F8012B704702F0FF03B2
:1004B00043EA032242EA024200F05EB84FF0000233
:1004C00000B5134694469646203922BFA0E80C504A
:1004D000A0E80C50B1F12001BFF4F7AF090728BF25
:1004E000A0E80C5048BF0CC05DF804EB890028BFA1
:1004F00040F8042B08BF704748BF20F8022B11F0CA
:10050000804F18BF00F8012B704770477047704745
:1005100010B5203AC0F00B80B1E81850203AA0E89E
:100520001850B1E81850A0E81850BFF4F5AF5FEAD2
:10053000027C24BFB1E81850A0E8185044BF18C985
:1005400018C0BDE810405FEA827C24BF51F8043B2C
:1005500040F8043B08BF7047D20728BF31F8023B80
:1005600048BF11F8012B28BF20F8023B48BF00F814
:10057000012B70474FF000020429C0F0128010F0E8
:10058000030C3FF49DAFCCF1040CBCF1020F18BF7B
:1005900000F8012BA8BF20F8022BA1EB0C01FFF7FC
:1005A0008FBF5FEAC17C24BF00F8012B00F8012B4C
:1005B00048BF00F8012B7047754600F02BF8AE4697
:1005C00005006946534620F00700854618B020B55F
:1005D000FFF79EFEBDE820404FF000064FF00007F9
:1005E0004FF000084FF0000B21F00701AC46ACE8DB
:1005F000C009ACE8C009ACE8C009ACE8C0098D4648
:10060000704710B50446AFF300802046BDE81040A7
:10061000FFF709BE00487047B04B00200149182081
:10062000ABBEFEE72600020070470000464910B549
:100630004A6822F440324A604A6843681A434A6072
:1006400001684A6822F480724A6001684A68036956
:1006500042EA03224A6001684A6822F040724A6016
:1006600001684A6883681A434A6001688A6822F40C
:1006700000628A6001688A68C3681A438A60816A76
:100680006FF07062D14201688A6822F070628A60FD
:1006900001688A680CD0836A1A438A6001688A6894
:1006A00022F040528A6001688A68C36A1A4301E0F6
:1006B00022F040528A6001688A6822F002028A6051
:1006C00001688A68037E42EA43028A6090F820103B
:1006D000002901684A680FD042F400624A6001684C
:1006E0004A6822F460424A6001684A68174C436ACB
:1006F00004EB43331A4301E022F400624A600168CC
:10070000CA6A22F47002CA620168CA6A838B104CFA
:1007100004EB03531A43CA6201688A6822F4007228
:100720008A6001688A6890F8303042EA43228A6021
:1007300001688A6822F480628A6001688A68406978
:1007400042EA8020886010BD0023014000E0FFFFE6
:100750000000F0FFFEE77047022000F04DB91020C6
:1007600000F04AB910B5202000F046F94FF480702F
:1007700000F042F9BDE810404FF4007000F03CB9C1
:1007800072B6FEE778B50024009490F83C20012A68
:1007900019D0012280F83C200A6807230568092A3D
:1007A00013D9EE680A3A02EB420293409E43EE6090
:1007B0000B788A680A3B03EB43039A400368DD68C1
:1007C0002A43DA6010E0022078BD2E6902EB420273
:1007D00093409E432E610B788A6803EB43039A4053
:1007E00003681D692A431A614A681F23072A13D226
:1007F00005686E6B521E02EB820293409E436E634D
:100800000B790A885B1E92B203EB83039A4003685C
:100810005D6B2A435A6327E005680D2A12D22E6BBE
:10082000D21F02EB820293409E432E630B790A880B
:10083000DB1F92B203EB83039A4003681D6B2A43CC
:100840001A6311E0EE6A0D3A02EB820293409E4376
:10085000EE620B790A880D3B92B203EB83039A4058
:100860000368DD6A2A43DA62164B0568144A9D4222
:1008700006D10D68122D03D1556845F480055560E9
:1008800005689D4218D10B68102B01D0112B13D194
:10089000536843F400035360096810290CD10A49D6
:1008A0000A4A0968B1FBF2F101EB8101490000E05D
:1008B000491E00910029FBD180F83C40002078BD02
:1008C00000230140002001403000002040420F0082
:1008D00070B504004FF0000503D0206C002610B165
:1008E00007E0012070BD204600F01CF8666484F823
:1008F0003C60206CC00610D4206C20F4885040F07E
:10090000020020642046FFF791FE6664206C20F010
:10091000020040F00100206400E0012584F83C6002
:10092000284670BD10B586B0044614216846FFF70E
:10093000C5FD1149206888421CD110480021026879
:1009400042F480720260006800F4807005900B48E9
:100950001438026842F001020260006800F00100F1
:100960000590012000900320CDE90101694604486B
:1009700000F04EF806B010BD00200140443802409F
:100980000000024070B5044600F03CF90546601CCA
:1009900002D004480078044400F034F9401BA0421F
:1009A000FAD370BD240000207CB50025009500F02E
:1009B00029F90E4E04463068201A142808D90C482C
:1009C0008DF8045000236A4601A9006803F084F8FA
:1009D00034600098002807D006494FF08050086026
:1009E000BFF34F8FBFF36F8F7CBD0000200000204E
:1009F0001800002004ED00E0044910B50A68024226
:100A000002D00860FFF7D0FF10BD0000143C014089
:100A10002DE9F84FDFF8B8A10022012403254FF09B
:100A20000F090AF1040BAAF1040E00BF0B6804FAC7
:100A300002F63340B34273D10F7907F00307012F59
:100A400001D0022F16D187684FEA420805FA08FC48
:100A500027EA0C07D1F80CC00CFA08FC4CEA070C8A
:100A6000C0F808C04768B7430E79C6F30016964031
:100A70003E4346600E79F643B6070DD0C768560070
:100A800005FA06FC27EA0C07D1F808C00CFA06FCA8
:100A90004CEA070CC0F80CC00E7906F00306022ED3
:100AA00010D1D60800EB8608D8F8206057074FEA27
:100AB000D76C09FA0CF7BE430F6907FA0CF73743F6
:100AC000C8F8207006684FEA420C05FA0CF7BE43DE
:100AD0000F7907F0030707FA0CF7374307604E68F2
:100AE00016F4403F6DD03B4E376847F4804737607F
:100AF000366822F0030706F480460096364E07EB70
:100B0000060CDCF8086897073F0F09FA07F826EA91
:100B10000806DFF8C880404503D14FF000081EE00A
:100B20004FE0DFF8BC80404502D14FF0010816E0ED
:100B3000DFF8B080404502D14FF002080FE0DFF847
:100B4000A880404502D14FF0030808E0DFF89C8000
:100B5000404502D14FF0040801E04FF0070808FAC1
:100B600007F848EA0608CCF80888DAF80060574623
:100B7000D1F804C09E435FEACC2C00D51E433E60F2
:100B8000DBF800605F46D1F804C09E435FEA8C2C1E
:100B900000D51E433E60DEF800607746D1F804C001
:100BA0009E435FEA8C3C00D51E433E60084F083FE1
:100BB0003E68D1F804C09E435FEACC3C00D51E439A
:100BC0003E60521C102AFFF431AFBDE8F88F0000E0
:100BD000083C01404438024000300140000002401F
:100BE0000004024000080240000C024000100240D5
:100BF0000069084000D0012070470AB18161704748
:100C00000904FBE7014880687047000024000020C9
:100C100002488168027811448160704724000020F6
:100C20000B4810B5016841F400710160016841F49E
:100C300080610160016841F480710160032000F06F
:100C400099F80F2000F006F800F04AF8002010BDD7
:100C5000003C024030B505461C4887B000240168BE
:100C600041F480210160006806A900F48020009012
:100C700001A800F0D3F900F001FA1549154AB0FBBC
:100C8000F1F11548491E026040F2E732C0E9032441
:100C9000C0E90114846100F005FD040012D10E4882
:100CA00000F042FD04000DD11A2000F035F8102D9F
:100CB00007D2002229461A2000F03CF807480560B8
:100CC00000E0012407B0204630BD00004438024057
:100CD00040420F00004801409402002028000020FC
:100CE0000C4882B0016841F480410160006800F462
:100CF000804000900748001F016841F0805101606A
:100D00000068002200F0805000900F21901E02B079
:100D100000F010B844380240002809DB00F01F0240
:100D2000012191404009800000F1E020C0F800114D
:100D300070470000F0B40E4B1B680C46C3F302234F
:100D4000C3F10705042D00D90425191D072901D277
:100D5000002300E0DB1E012606FA05F1491E2140B2
:100D600099409E40761E16403143F0BC01F05DBCB8
:100D70000CED00E0064900F0070208684FF6FF039B
:100D8000184040EA0220034A104308607047000000
:100D90000CED00E00000FA052DE9F8430446006878
:100DA0004FF00109C1074FF0000601D1400727D5D8
:100DB000DFF81C81C8F86860FFF724FF0746454D3F
:100DC00005E000BFFFF71EFFC01B022857D82868A8
:100DD0000001F7D460688101207A41EA00703D4942
:100DE00084310860C8F86890FFF70CFF074604E0FC
:100DF000FFF708FFC01B022841D828680001F7D57B
:100E00002078800752D533484030016841F0805146
:100E100001600068304D00F080500090286840F478
:100E200080702860FFF7EEFE074604E0FFF7EAFE59
:100E3000C01B022823D82868C005F7D5254D70357A
:100E4000286810F4407020D0A18901F440718142DB
:100E50001BD0286820F440712048C0F8009006603C
:100E600029602868C00710D0FFF7CCFE064641F283
:100E7000883707E0FFF7C6FE801BB84202D903207F
:100E8000BDE8F88328688007F4D5E1681148C1F30C
:100E900001220830032A12D0016821F4F811016000
:100EA0002868A189C1F30B01084328602078000756
:100EB00003D50B49207CC1F8E0010020E0E702687F
:100EC000084B22F4F81219400A430260E8E70000D8
:100ED000000047420038024000700040400E474288
:100EE00000104742FFFCFF0F2DE9F0470E460500BA
:100EF00065D0DFF81481D8F80000F7B200F00700E1
:100F0000B04207D288F80070D8F8000000F007005F
:100F1000B04254D128683D4C810712D5400703D513
:100F2000206840F4E05020602878000703D520684E
:100F300040F4604020602068A96820F0F000084379
:100F400020602878C0072DD030496868083901280A
:100F500012D0022813D0032811D00968890700296C
:100F60002DDA216821F0030101432160FFF74AFED9
:100F7000814641F2883A0EE009688903EFE7096883
:100F80008901ECE7FFF73EFEA0EB0901514502D9CC
:100F90000320BDE8F0872068696800F00C00B0EB22
:100FA000810FEFD1D8F80010404601F00701B1429F
:100FB00007D90770006800F00700B04201D0012097
:100FC000E7E72878400705D52068E96820F4E05075
:100FD000084320602878000706D52068296920F496
:100FE000604040EAC100206000F058F82168084ADB
:100FF000C1F30311515CC840064908600648006807
:10100000FFF728FE0020C4E7003C024008380240F9
:101010007448000830000020280000200F220260E1
:101020000C4A136803F003034360136803F0F003F2
:101030008360136803F4E053C36012684FF4E05315
:1010400003EAD20202610448006800F00700086069
:101050007047000008380240003C0240044805493F
:1010600000680968044AC1F38221515CC840704796
:101070003000002008380240844800080448054930
:1010800000680968044AC1F34231515CC8407047A6
:10109000300000200838024084480008154810B588
:1010A000006810F00C02144813D01449042A0FD021
:1010B000082A0ED10F4C241F2268236802F03F0239
:1010C0005B0207D52068C0F38810A0FB010106E091
:1010D000084610BD2168C1F38811A1FB000100235F
:1010E000FFF728F92168C1F30141491C4900B0FB11
:1010F000F1F010BD083802400024F40040787D0172
:101100002DE9F84F04006ED02078DFF84C93C0072B
:10111000A9F104054AD009F104000168C1F3810175
:10112000012908D00068C0F3810002280AD1D9F84B
:101130000000400206D52868800337D56068002883
:10114000E1D033E06068B0F5803F10D0B0F5A02F5B
:10115000286810D020F480302860286820F480208F
:1011600028606068A8B1FFF74DFD06460DE02868CD
:1011700040F48030F4E740F480202860F7E700BFB7
:10118000FFF740FD801B642873D828688003F7D5DB
:101190000CE0FFF737FD064605E000BFFFF732FD24
:1011A000801B6428F0D828688003F7D42078DFF803
:1011B000AC8280074FF0000A3ED5A748001D0168A9
:1011C00011F00C0F08D00068C0F3810002280BD189
:1011D000D9F80000400207D42868800716D5E068D7
:1011E000012800D112E033E1E068B8B10120C8F86D
:1011F0000000FFF707FD064605E000BFFFF702FD10
:10120000801B0228C0D828688007F7D52868216984
:1012100020F0F80040EAC10028600DE0C8F800A006
:10122000FFF7F0FC064604E0FFF7ECFC801B022809
:101230001FD828688007F7D42078000722D5864F6A
:1012400087486169703771B101210160FFF7DAFCED
:10125000064604E0FFF7D6FC801B022809D8386850
:101260008007F7D50EE0C0F800A0FFF7CBFC0646DC
:1012700005E082E0FFF7C6FC801B02287DD83868B5
:101280008007F7D42078400768D5DFF8CCB1002775
:101290000BF13C0BDBF80000C0000BD4DBF80010B6
:1012A00041F08051CBF80010DBF80000012700F07E
:1012B000805000906B4E3068C00510D4306840F408
:1012C00080703060FFF79EFC009005E0FFF79AFC0D
:1012D0000099401A022850D83068C005F6D55E4EF5
:1012E000A0686C3601280FD00528306810D020F097
:1012F00001003060306820F004003060A068B8B1B0
:10130000FFF780FC00900FE0306840F00100F4E748
:1013100040F004003060F7E7FFF774FC0099411AD1
:1013200041F28830814266D830688007F4D50EE0FB
:10133000FFF768FC009007E0FFF764FC0099411A92
:1013400041F28830814256D830688007F4D42FB1FA
:10135000DBF8001021F08051CBF80010A069C8B371
:101360003D49091D0968C1F3810102294AD00228BB
:10137000504607D0C8F8600000E03CE0FFF742FCB0
:1013800004463BE04746C8F86000FFF73BFC0646D2
:1013900005E000BFFFF736FC801B02282BD8286829
:1013A0008001F7D4D4E907010843A16A2E4A49080D
:1013B00002EB0141626A41EA8211084394F82C1061
:1013C00040EA0161C9F8001001203866FFF71AFCF5
:1013D000044606E03EE000BFFFF714FC001B0228B5
:1013E00009D828688001F7D534E000BFFFF70AFC70
:1013F000001B022802D90320BDE8F88F286880016D
:10140000F4D427E00128F7D0D9F80000E26900F40D
:10141000800191421CD1226A00F03F01914217D114
:1014200047F6C071626A0140B1EB821F10D1A26A17
:101430004FF0FF3300F4403103EB5202B1EB024FA7
:1014400006D194F82C1000F07060B0EB016F01D061
:101450000120D1E70020CFE70438024000004742D6
:10146000800E4742007000400000FFFF10B50400EE
:1014700002D0607F10B106E0012010BD002020776F
:10148000204600F041F8022060772068C168C94317
:10149000C90632D5CA2141622168532048622046DC
:1014A00000F0A6FE20BB20688168164A11408160CA
:1014B0002168886862681043D4E904231A43104302
:1014C00088602168E068086120680169228941EA32
:1014D00002410161204600F0AFFE48B921680A6C64
:1014E00022F480220A6421680A6CA3691A430A6400
:1014F0002268FF21516208B110BD002001216177EF
:1015000010BD0000BFFF8FFF10B586B00446142148
:101510006846FEF7D3FF0949206888420CD10220B3
:101520000090C00103906846FFF736FC08B1FFF752
:1015300027F903490120086006B010BD00280040CB
:101540003C0E474270B504460B482168C860FFF75F
:1015500059FB05464FF47A7607E000BFFFF752FBD0
:10156000401BB04201D9032070BD2068C0688006CE
:10157000F4D5002070BD00005F3F010070B504008D
:1015800009D0606A002540B125616561A56294F8C3
:10159000510040B10CE0012070BD6068B0F5827F61
:1015A000F4D0E561F2E784F85050204600F044F8AA
:1015B000022084F851002068016821F04001016098
:1015C000A088218900F4827001F404410843A189B4
:1015D00001F400610843217C01F002010843217DF0
:1015E00001F001010843218B01F400710843217FC0
:1015F00001F03801084394F8201001F080010843FD
:10160000218D01F40051084321680860A06904217C
:1016100001EA104094F8241001F0100108432168F9
:1016200048602068C16921F40061C16165650120DD
:1016300084F85100002070BD10B586B00446142116
:101640006846FEF73BFF13492068884220D11248C4
:101650000021026842F480520260006800F4805069
:1016600005900D481438026842F0010202600068DB
:1016700000F001000590E02000900220CDE901017A
:10168000032003900520049069460448FFF7C0F941
:1016900006B010BD00300140443802400000024056
:1016A0007047704710B5040003D094F83D0010B1A6
:1016B00007E0012010BD002084F83C00204600F027
:1016C0001FF8022084F83D00211D206800F034FE40
:1016D000012084F8460084F83E0084F83F0084F836
:1016E000400084F8410084F8420084F8430084F804
:1016F000440084F8450084F83D00002010BD00003F
:1017000008B500680649884208D10648016841F4D6
:1017100000310160006800F40030009008BD000056
:10172000004401404438024090F83D10012901D0A6
:1017300001207047022180F83D100168CA6842F01C
:101740000102CA6000680E4988420ED0B0F1804F95
:101750000BD00C49884208D00B49884205D00B4970
:10176000884202D00A49884204D1816801F0070109
:10177000062903D0016841F0010101600020704793
:10178000000001400004004000080040000C004040
:101790000040014070472DE9F04104460068C668EA
:1017A00005694FF00007A90713D5B10711D5F91E38
:1017B000016101202077206880698007204602D0DF
:1017C000FFF7E8FF04E000F0A9F8204600F03BF93D
:1017D0002777680716D5700714D521686FF00400C5
:1017E0000861022020772068806910F4407F20463D
:1017F00002D0FFF7CFFF04E000F090F8204600F0A1
:1018000022F92777280715D5300713D521686FF0FF
:1018100008000861042020772068C06980072046FE
:1018200002D0FFF7B7FF04E000F078F8204600F0A0
:101830000AF92777E80616D5F00614D521686FF067
:1018400010000861082020772068C06910F4407FEC
:10185000204602D0FFF79EFF04E000F05FF820462C
:1018600000F0F1F82777E80708D0F00706D02168E4
:101870006FF001000861204600F0E6F8280608D560
:10188000300606D521686FF0800008612046FFF71A
:1018900007FF680608D5700606D521686FF040007E
:1018A0000861204600F0DAF8A8060AD5B00608D587
:1018B00021686FF0200008612046BDE8F041FFF785
:1018C000F0BEBDE8F081000010B586B004461421DA
:1018D0006846FEF7F3FD0E492068884216D10D4890
:1018E0000021026842F002020260006800F002007B
:1018F00005904FF4807000900220CDE90101032093
:10190000CDE9031069460448FFF782F806B010BD20
:10191000004401403038024000040240704770B576
:10192000044690F83C0000260D4601280FD0012007
:1019300084F83C006AB1042A1DD0082A2FD00C2A52
:101940003FD00126002084F83C00304670BD0220C4
:1019500070BD206800F040FD2068816941F00801F9
:1019600081612068816921F00401816120688169B9
:101970002A69114311E0206800F056FD2068816952
:1019800041F4006181612068816921F48061816195
:10199000206881692A6941EA02218161D2E72068D1
:1019A00000F06EFD2068C16941F00801C161206846
:1019B000C16921F00401C1612068C1692A6911432C
:1019C00011E0206800F088FD2068C16941F40061E1
:1019D000C1612068C16921F48061C1612068C16969
:1019E0002A6941EA0221C161ACE710B5040003D0C5
:1019F00094F83D0010B107E0012010BD002084F8EC
:101A00003C00204600F01EF8022084F83D00211D15
:101A1000206800F091FC012084F8460084F83E0024
:101A200084F83F0084F8400084F8410084F84200C4
:101A300084F8430084F8440084F8450084F83D00AD
:101A4000002010BD7047704700680349884201D1EB
:101A5000FFF7DEB87047000000480140704770B5DE
:101A6000040004D094F84100002510B106E00120E4
:101A700070BD84F84050204600F024F8242084F8FB
:101A800041002068C16821F40051C160204600F087
:101A900045FD2068016921F4904101612068416998
:101AA00021F02A0141612068C16841F40051C16000
:101AB0006564202084F8410084F8420065630020BA
:101AC00070BD0000F0B587B0044614216846FEF7EB
:101AD000F5FC3249DFF8C0C0276800222F4B1439CB
:101AE0000224032507262E48674517D11F6847F0B3
:101AF00010071F601B6803F0100305930B6843F089
:101B000001030B60096802AF01F001010591690250
:101B1000CDE9001487E8640069461CE0DFF884C062
:101B200067451CD11D4B1B1F1F6847F400371F6002
:101B30001B6803F4003305930B6843F001030B604B
:101B4000096802AB01F0010105910C21CDE90014F7
:101B500083E864006946FEF75BFF07B0F0BD1248FA
:101B60008742FAD1186840F020001860186800F029
:101B700020000590086840F00400086008680292A0
:101B800000F004000590C020CDE900040820CDE954
:101B9000035069460548DEE7001001404438024022
:101BA00000000240004400400014014000080240D0
:101BB000FEE700007FB500241448009401940294CD
:101BC00011490394C0E9001484600461047680F82C
:101BD00020400F49C0E90A140125C561C46080F89E
:101BE00030404561FEF774FE08B1FEF7C9FDCDE94E
:101BF0000045694605480294FEF7C4FD002801D05F
:101C0000FEF7BEFD7FBD000000200140B4000020B3
:101C10000100000F10B51C4A02210A2000F06CFDE3
:101C20001A4C194A0221A0611832102000F064FDFC
:101C3000154AE061D83A0021154800F089FD124AA2
:101C40002060B43A0021134800F082FD0E4A606023
:101C5000903A0021104800F07BFD0B4AA0606C3ADE
:101C600000210E4800F074FD074AE060483A002168
:101C70000B4800F06DFD044A2061243A0021094818
:101C800000F066FD606110BD4448000800000020BF
:101C90006522000879350008A9350008B13500082B
:101CA0007D3400083D3300082DE9F04786B014214B
:101CB0006846FEF703FC44480024016841F0040133
:101CC0000160016801F004010591016841F08001A3
:101CD0000160016801F080010591016841F0010196
:101CE0000160016801F001010591016841F0020104
:101CF00001600068DFF8D49000F002000590002237
:101D00004FF400514846FEF778FF01220F21484664
:101D1000FEF773FFDFF8B880002210214046FEF77F
:101D20006CFFDFF8B0A00022C0215046FEF765FF2F
:101D300042F20F0000900125CDE901546946484662
:101D40000394FEF765FE02264FF488170096CDE94E
:101D5000017469464046FEF75BFE10200090CDE915
:101D60000154694640460394FEF752FE4FF44C700E
:101D7000CDE90007694602964846FEF749FEC020B5
:101D80000090CDE90154694650460394FEF740FEA9
:101D9000002205210720FEF7CDFF0720FEF7BCFF3C
:101DA000002205210A20FEF7C5FF0A20FEF7B4FF36
:101DB000002205211720FEF7BDFF1720FEF7ACFF1C
:101DC00006B0BDE8F087000030380240000802404D
:101DD00000000240000402400B4810B509490160B0
:101DE00000217F22C0E90112FF22C0E903214161E5
:101DF0008161FFF73BFB002803D0BDE81040FEF7F0
:101E0000BFBC10BD00280040FC0000200F4810B5EA
:101E10000D4901604FF48271416000218160C16011
:101E20004FF400720161C0E90512C16101624162B3
:101E300081620A21C162FFF7A1FB002803D0BDE83F
:101E40001040FEF79DBC10BD003001401C01002079
:101E500010B588B01C216846FEF730FB14481349C2
:101E60000024C0E900144FF6FF71C0E9024104618B
:101E70008461FFF717FC08B1FEF782FC0C48FFF7FE
:101E8000B4FD08B1FEF77CFC6020CDE900040294AB
:101E90000022694606480494FFF741FD08B1FEF7A9
:101EA0006FFC0348FFF710FD08B010BD004401406F
:101EB000740100200C4810B50A4901604FF4E1316B
:101EC0004160002181600C22C160C0E9041281617F
:101ED000C161FFF7C4FD002803D0BDE81040FEF744
:101EE0004FBC10BD00100140BC0100200C4810B5D3
:101EF0000A4901604FF4E1314160002181600C2208
:101F0000C160C0E904128161C161FFF7A8FD00282A
:101F100003D0BDE81040FEF733BC10BD00440040C4
:101F2000040200200C4810B50A4901604FF4E13169
:101F30004160002181600C22C160C0E9041281610E
:101F4000C161FFF78CFD002803D0BDE81040FEF70B
:101F500017BC10BD001401404C020020FEE7FEE754
:101F600070B500240021204600F0C7F800250020AD
:101F700000F02CF96D1CEDB2802DF8D3641CE4B296
:101F8000082CEFD370BD000010B5064C0122402193
:101F90002046FEF732FE20460122BDE81040802197
:101FA000FEF72BBE000402402DE9F0410024124E42
:101FB0000746802525FA04F23A4080213046FEF794
:101FC0001CFE012240213046FEF717FE0022402170
:101FD0003046FEF712FE641CE4B2082CEAD301225C
:101FE00040213046FEF709FE3046BDE8F0410022B0
:101FF0004021FEF702BE00000004024010B50B4C69
:10200000012280212046FEF7F8FD012240212046D2
:10201000FEF7F3FD002280212046FEF7EEFD20466C
:102020000022BDE810404021FEF7E7BD0004024059
:1020300010B5094C002280212046FEF7DEFD01226A
:1020400040212046FEF7D9FD20460122BDE8104080
:102050008021FEF7D2BD00000004024010B5C82068
:10206000FEF790FCFFF790FFAE2000F09EF8D52021
:1020700000F09BF8802000F098F8A82000F095F878
:102080003F2000F092F8D32000F08FF8002000F0FD
:102090008CF8402000F089F8A12000F086F8C820D4
:1020A00000F083F8DA2000F080F8122000F07DF8CC
:1020B000812000F07AF8CF2000F077F8D92000F0E6
:1020C00074F8F12000F071F8DB2000F06EF8302099
:1020D00000F06BF8A42000F068F8A62000F065F886
:1020E0008D2000F062F8142000F05FF8AF2000F0BF
:1020F0005CF8BDE81040FFF733BF10B50C4640F068
:10210000B00000F052F8102040EA141000F04DF832
:1021100004F00F00BDE8104000F047B82DE9F04191
:102120000746CE004000083E801E15464FF0FF389F
:10213000F1B2C0B2FFF7E1FF1148002400EB051532
:102140002819A0F5805090F8000E00F03FF8641CAC
:10215000E4B2082CF4D308EB4700F1B2C0B2FFF7A9
:10216000CCFF00242819A0F5805090F8080E00F04C
:102170002DF8641CE4B2082CF4D3BDE8F081000013
:102180007A4100082DE9F04115460E460746002425
:1021900006E03019C1B23846FFF7C0FF641CE4B254
:1021A0002A5D002AF5D1BDE8F08110B50446FFF79D
:1021B00025FF7820FFF7F8FE0020FFF7F5FE204608
:1021C000FFF7F2FEBDE81040FFF732BF10B504463E
:1021D000FFF714FF7820FFF7E7FE4020FFF7E4FE4B
:1021E0002046FFF7E1FEBDE81040FFF721BF0000E9
:1021F0002DE9F041044600680025C168490618D45D
:10220000C16841F08001C160FEF7FCFC06464FF456
:102210007A78042707E000BFFEF7F4FC801B4045F6
:1022200001D9677701252068C068400601D4002DD8
:10223000F2D02846BDE8F08170B50446006800255C
:10224000C16821F08001C16020688068800606D4E2
:102250002046FFF777F910B1042060770125284662
:1022600070BD0000012251030348FEF7C6FC0120A7
:1022700000F006FAFBE700000008024010B54FF03E
:10228000E020006901F0B6FD012803D0BDE8104050
:1022900001F0C4BA10BD000010B592B030216846FC
:1022A000FEF70CF914210CA8FEF708F919480024D0
:1022B000016841F080510160006800F08050119089
:1022C0001548016821F4404141F400410160006873
:1022D000069400F4404011900620009001200290E6
:1022E0000390102004906846FEF70AFF08B172B60A
:1022F000FEE70F20CDE90C040E940F9400210CA8EA
:102300001094FEF7F1FD002801D072B6FEE712B07E
:1023100010BD0000403802400070004002480168D3
:1023200041F470010160704788ED00E00148FFF75B
:1023300032BA000094020020F0B502681F4B204C16
:10234000204D214E4FF0804C984207D0604505D07B
:10235000A04203D0A84201D0B04203D122F07007BE
:102360004A683A43984210D060450ED0A0420CD043
:10237000A8420AD0B04208D0144CA04205D0144C58
:10238000A04202D0134CA04203D122F44074CA6888
:1023900022434C6922F0800222438C68C4620C689C
:1023A0008462984201D109690163016841F0040126
:1023B0000160012141610260F0BD000000000140A8
:1023C0000004004000080040000C004000400140B4
:1023D000004401400048014030B5036A026A22F01F
:1023E000010202624268846924F073050C682C4380
:1023F00023F002058B682B430A4DA8420BD123F032
:102400000805CB6822F440722B434D6923F0040386
:1024100015438A692A4342608461496841630362C3
:1024200030BD00000000014030B5026A036A23F0AD
:1024300010030362436884690D6824F4E64444EAA7
:1024400005248D6822F0200242EA05120B4DA842B5
:102450000ED1CD6822F0800242EA05124D6923F4C4
:10246000406343EA85038D6922F0400243EA850315
:102470004360846149688163026230BD00000140AD
:1024800030B5036A026A22F4807202624268C4694B
:1024900023F4007324F073050C682C438D6843EA21
:1024A00005230C4DA8420ED1CD6823F4006343EA06
:1024B00005234D6922F4405242EA05128D6923F446
:1024C000806342EA05124260C4614968C1630362E5
:1024D00030BD00000000014030B5046A026A22F4F9
:1024E000805202624268C3690D6823F4E64343EAFE
:1024F00005238D6824F4005444EA0534064DA842AF
:1025000004D14D6922F4804242EA85124260C361DF
:1025100049680164046230BD0000014070B50446A2
:1025200000680169E26821F44051114301612169A9
:10253000A068E26908436169114308432168CA68D9
:1025400049F20C639A430243CA6020684169A26958
:1025500021F440711143416131492068884202D021
:102560003049884202D1FEF789FD01E0FEF776FD91
:10257000E2690023192164253226B2F5004F626812
:1025800028D0A0FB0101930F9200FDF7D3FE014676
:10259000B0FBF5F06FF01802504301EB800006EB42
:1025A0000010B0FBF5F000F0F002B1FBF5F002EB2B
:1025B0000012B1FBF5F06FF01803584301EB8000F7
:1025C00006EB0010B0FBF5F000F00F00216810449E
:1025D000886070BDA0FB010192185B41FDF7AAFE67
:1025E0000146B0FBF5F00201B1FBF5F06FF0180306
:1025F000584301EB800006EBC000B0FBF5F000F0A3
:10260000F80002EB4002B1FBF5F0584301EB80000B
:1026100006EBC000B0FBF5F000F00700D6E70000C5
:102620000010014000140140FEE70907090E0028D0
:1026300004DB00F1E02080F80014704700F00F0088
:1026400000F1E02080F8141D7047FEF7E9FAFFF76B
:1026500023FEFFF729FBFFF7BFFBFFF7F9FBFFF7AF
:10266000A9FAFFF7D3FBFFF725FCFFF73FFCFFF7C5
:1026700059FC00F013F8FFF7CDFA00F021F8FEE75F
:1026800010B5EFF3058111B16FF0050403E00024EC
:1026900008B100F025FE204610BD0000EFF30580D4
:1026A00010B16FF0050070470448016811B14FF098
:1026B000FF30704701210160002070478400002036
:1026C00010B5EFF3058010B16FF0050010BD08489C
:1026D0000168012902D04FF0FF3010BD054A0021EA
:1026E00082F8141D0221016000F0A0FF002010BD3F
:1026F000840000200BE000E0F8B514464FF0000520
:10270000EFF3058212BB08B301B3A4B1D4E90232DE
:1027100063B1502A1AD32269C2B1676900FB01F67E
:10272000B74213D3009501F0B0F807E072B92269FF
:1027300062B9626952B9002201F086F8050005D03D
:102740000CB1216800E0002100F094FD2846F8BD9E
:102750002DE9FF414FEA01034FF00005EFF305813A
:10276000039549BB40B38027182100244AB316685B
:1027700006B1344696691EB13146761E382E02D215
:102780001679F60703D0002004B0BDE8F081566941
:1027900006B1B708D2F808C0BCF1000F0DD0D5685B
:1027A0005C2D18D312693AB136B18DE806103A465D
:1027B000214601F0F4FA03900DE0D6685EB9126983
:1027C0004AB903AACDE90012BAB2214601F0BAFA19
:1027D000012800D003950398D6E700002DE9F041C9
:1027E000134C0F460546E6682068001D00F044FCC7
:1027F000681C07D137B12168BDE8F0410D48091DBB
:1028000000F08ABC20683544B5424560216805D295
:10281000A06BBDE8F041091D00F066BC606B091DAE
:1028200000F062FCA06A854200D2A562BDE8F0819A
:1028300034000020CC0700202DE9F041054600F0CF
:1028400077FC2D4CA068401CA06020682B4F10B175
:10285000606930B32BE02560A068012827D10026ED
:1028600006EB860007EB800000F030FC761C382E6B
:10287000F6D3234800F02AFC2148143000F026FC4F
:102880001F48283000F022FC1D483C3000F01EFCA0
:102890001B48503000F01AFC194860631430A063E4
:1028A00005E02068E96AC06A884200D82560606A4D
:1028B000401C60626864E86A2169884200D920612E
:1028C00000EB800007EB8000291D00F025FC00F0E4
:1028D0004FFC606900280CD02068E96AC06A884211
:1028E00007D208494FF080500860BFF34F8FBFF305
:1028F0006F8FBDE8F0810000340000201C03002031
:102900007C07002004ED00E038B500F011FC104C0D
:102910002068C8B90F4800F0D9FB0E48143000F009
:10292000D5FB0C48E060143020610A4B0020F03BDE
:10293000009003F1500210210A2000F0A6FF206051
:1029400010B105A100F096FCBDE8384000F010BCC5
:1029500070000020D0080020546D7251000000006B
:1029600030B4026C0B46002A0BD0C1681144C16020
:102970008468A14201D30168C16030BC1846FDF7EC
:1029800050BD30BC70472DE9F041856B17460446B9
:102990000026026C82B1C7B1E068FDF742FDE16834
:1029A000206C091AE1602268914202D2A168081ADB
:1029B000E060022F16D017E02068A8B9A06801F0E7
:1029C00091FA06460020A0600EE06068FDF729FD40
:1029D000216C606808446060A168884204D3206864
:1029E000606001E005B16D1E6D1CA5633046BDE859
:1029F000F08110B5044690F8590058B101280CD068
:102A000002280FD0502080F31188BFF34F8FBFF3FF
:102A10006F8FFEE7206B00F0BFFB2046BDE8104043
:102A200000F0BABB10BD000010484FF470514207CF
:102A300006D0C01D0D4920F00700411AC1F57051A4
:102A40000B4A00230144C2E900030839183A21F077
:102A5000070111604B600B600B1AC0E90013936013
:102A60004FF000405360506170470000B00F0020ED
:102A7000A0000020144E154CA6F29C474FF0805841
:102A8000DFF84C9012E000BF00F052FBF068C56820
:102A9000281D00F0F1FAA068401EA0606068401E8A
:102AA000606000F065FB2846FFF7A3FF6068002820
:102AB000EAD138680128F9D9C9F80080BFF34F8FEF
:102AC000BFF36F8FF2E70000B8070020340000204A
:102AD00004ED00E070B51D46049C51B1C4F800201F
:102AE000C4E90F010121204600F002FF84F84C5098
:102AF00070BD2460F4E700002DE9F05F8846DDE951
:102B00000B941546834691009A460A9EA522206B97
:102B1000FDF7CCFC6FF00301206B01EB850108444D
:102B200020F00707780707D0502080F31188BFF303
:102B30004F8FBFF36F8FFEE70025B8F1000F0FD066
:102B40005FF00000221818F8001082F8341018F80E
:102B5000001011B1401C1028F4D384F8435001E058
:102B600084F83450382E00D33726E662C4E9136562
:102B7000201D00F0B6FA04F1180000F0B2FA24614A
:102B8000C6F138006462A061656584F85850524609
:102B90005946384600F05AFA2060B9F1000F01D0CA
:102BA000C9F80040BDE8F09F30B5114900E011467A
:102BB0000A688242FBD34B685C18844203D14068A8
:102BC00018444860084643681C18944209D1084CD0
:102BD000183C2468A24209D052681A4442600A682C
:102BE00012680260814200D0086030BD0460F9E7DD
:102BF000A000002070B5002441600B4D006191429F
:102C000006D8D11A8269914206D2011D286907E0CF
:102C10009A4203D2994201D3012403E0011DE868DE
:102C200000F062FA204670BD7000002010B5044626
:102C300000F07EFAA06B28B15FF0000400F098FA73
:102C4000204610BD0124F9E730B589B03C4D6EE057
:102C50000498002806DADDE90601059A90470498F1
:102C6000002864DB069C606910B1201D00F004FAA6
:102C700003A800F0D7F8024604980A2857D2DFE8E4
:102C800000F00505052D334A05052D3394F828007D
:102C900040F0010084F828000599A069059B0144D3
:102CA0002046FFF7A7FF68B3216A2046884794F8BB
:102CB000280040073BD5002000900598A16900231B
:102CC00042181946204601F017FAD8B9502080F36F
:102CD0001188BFF34F8FBFF36F8FFEE714F8280FF3
:102CE00020F00100207022E094F8280040F001005C
:102CF00084F828000598A06128B181181346204661
:102D0000FFF778FF13E0502080F31188BFF34F8F57
:102D1000BFF36F8FFEE794F82800810703D42046A5
:102D200000F03AFA03E020F0010084F828000022C5
:102D300004A9286800F030FF002889D109B030BD0F
:102D4000700000202DE9FC410F46054600F0B2FC62
:102D500001A800F067F80446019818B101F03AF9AB
:102D6000BDE8FC81254EAFB130690068D0B30027C3
:102D7000291B3A46306800F091FA01F02BF900283F
:102D8000EED11F494FF080500860BFF34F8FBFF363
:102D90006F8FE5E7A542EBD801F01CF9F0682746F4
:102DA000C068C468201D00F067F994F82800410746
:102DB00019D5A0692B4641193A462046FFF71AFF5C
:102DC000A8B100200346014600902A46204601F0A3
:102DD00093F960B9502080F31188BFF34F8FBFF390
:102DE0006F8FFEE707E020F0010084F82800216AD9
:102DF00020468847B4E70127BAE7000070000020AA
:102E000004ED00E00648416B096829B1416BC968CF
:102E1000C9684968816270474FF0FF31FAE70000E6
:102E20003400002070B5054600F0F2FF064E04465F
:102E3000B068844203D200F009F8012000E00020CD
:102E400028602046B46070BD70000020F8B5194DB0
:102E500020E0C068C4680668201D00F00DF9216AF2
:102E60002046884794F82800400713D5A0693044CD
:102E7000B04206D924616060211DE86800F034F991
:102E800008E000200346014600903246204601F04B
:102E900033F938B1E86801680029DAD12969C5E950
:102EA0000310F8BD502080F31188BFF34F8FBFF39C
:102EB0006F8FFEE77000002008484068401C4FF00C
:102EC000500080F3118804D0BFF34F8FBFF36F8F92
:102ED000FEE7BFF34F8FBFF36F8FFEE7A800002020
:102EE000074CE068016841B1C0680021D0F80000DB
:102EF000FFF728FFFFF7A8FEF3E701210020F7E71F
:102F0000700000202DE9F041044600F011F994F919
:102F1000455004F1240609E0606A48B1304601F0EA
:102F200021F808B100F048FB6D1E6DB2002DF3DCF6
:102F30004FF0FF3684F8456000F01AF900F0F8F819
:102F400094F9445004F1100709E0206948B138466B
:102F500001F008F808B100F02FFB6D1E6DB2002DD6
:102F6000F3DC84F84460BDE8F04100F001B90000F2
:102F70002DE9F0410546002700F09CFB324E3068F9
:102F800008B9FFF751FD706905424ED1C5B3083548
:102F900068070ED005F00700C0F108000544680777
:102FA00007D0502080F31188BFF34F8FBFF36F8F8E
:102FB000FEE72DB37068854237D8234818300146A4
:102FC0000C6801E020460C466168A94202D22168E3
:102FD0000029F7D131688C4227D007682168016049
:102FE00060680837411B10290FD96019420708D0C3
:102FF000502080F31188BFF34F8FBFF36F8FFEE730
:1030000013E041606560FFF7CFFD61687068401AAA
:103010007060B268904200D2B060706901430020D5
:10302000C4E90001F068401CF06000F0D3FF7807AD
:1030300007D0502080F31188BFF34F8FBFF36F8FFD
:10304000FEE73846BDE8F0818800002010B5031F78
:103050004FF080741C601B1F21F001011960191FC3
:10306000044B0B6014390A60091F6FF002024438E8
:103070000A6010BDB92E0008D0E9013201699A60DA
:10308000D0E901235A604A68824201D182684A60CD
:10309000002202610868401E08600868704700004E
:1030A000034B036003F15C000860802010607047F0
:1030B000F8080020044B036003F15C0008604FF443
:1030C0008070106070470000540B002000F1080170
:1030D0004FF0FF32C0E90112C160016100210160BF
:1030E000704700210161704730B50B685A1C02D04F
:1030F00000F1080202E0026904E0224654682568F3
:103100009D42FAD953684B6099608A6051600861AA
:103110000168491C016030BD42684A6093688B6059
:1031200093685960916008610168491C01607047AB
:10313000502080F31188BFF34F8FBFF36F8F0A4980
:103140004868401C486001280CD10848006810F00D
:10315000FF0F07D0502080F31188BFF34F8FBFF3CC
:103160006F8FFEE770470000A800002004ED00E02C
:103170000849486828B1401E486001D180F3118891
:103180007047502080F31188BFF34F8FBFF36F8FCC
:10319000FEE70000A800002070B500282AD0164DD8
:1031A000A0F1080460686969084207D1502080F3E3
:1031B0001188BFF34F8FBFF36F8FFEE722683AB1DC
:1031C000502080F31188BFF34F8FBFF36F8FFEE75E
:1031D0008843606000F06EFA60686968084468605F
:1031E0002046FFF7E1FC2869401C2861BDE87040DB
:1031F00000F0F0BE70BD0000880000204FF0E0201D
:1032000000210161816105494FF47A720968B1FBBF
:10321000F2F1491E41610721016170473000002031
:1032200010B5FDF763F8114910280ED300F1E02026
:1032300090F8F0030A78904207D2502080F311886A
:10324000BFF34F8FBFF36F8FFEE7094800688968AF
:1032500000F4E060884207D9502080F31188BFF362
:103260004F8FBFF36F8FFEE710BD0000A800002056
:103270000CED00E010B5084B002200BF53F83240BF
:103280001CB1521C082AF9D310BD43F8321003EBCD
:10329000C201486010BD0000DC02002070B5154678
:1032A0000E460446FFF744FF94F944100020491CE1
:1032B00001D184F8440094F94510491C01D184F8E7
:1032C0004500FFF755FFA06B28B92A46314604F1A7
:1032D000240000F08FF92046BDE87040FFF712BED1
:1032E00010B5020014D00F48006B38B1502080F3A5
:1032F0001188BFF34F8FBFF36F8FFEE700F0DAF94D
:1033000000211046FFF76AFA00F064FE002807D19A
:1033100005494FF080500860BFF34F8FBFF36F8FA8
:1033200010BD00003400002004ED00E002490A6AEC
:103330000260C968416070473400002008B500246D
:10334000314D8DF80040661E32466946E86900F04E
:1033500023FC012853D19DF80000313811284ED2AA
:10336000DFE800F00910171E252C333A4D4D4D4D66
:103370004D4D4D4D4100FEF7F3FD0520FFF780F95F
:1033800022A236E0FEF7ECFD0520FFF779F923A233
:103390002FE0FEF7E5FD0520FFF772F922A228E0F5
:1033A000FEF7DEFD0520FFF76BF922A221E0FEF714
:1033B000D7FD0520FFF764F921A21AE0FEF7D0FD42
:1033C0000520FFF75DF921A213E0FEF7C9FD0520F6
:1033D000FFF756F920A20CE0FEF7C2FD0520FFF72B
:1033E0004FF920A205E0FEF7BBFD0520FFF748F9E5
:1033F0001FA201210220FEF7C5FE8DF800400A2021
:10340000FFF73EF9A0E700000000002048656C6C63
:103410006F205365766966666572000048656C6C5E
:103420006F2053657632000048656C6C6F205365E1
:103430007633000048656C6C6F205365763400006D
:1034400048656C6C6F2053657635000048656C6C80
:103450006F2053657636000048656C6C6F205365AD
:103460007637000048656C6C6F2053657638000035
:1034700048656C6C6F205365763900001CB50020E0
:103480003A4E3B4D3B4F8DF800004FF0FF3842461F
:1034900001A9A86900F080FB012845D10024002281
:1034A00001213046FDF7A9FB002202213046FDF73D
:1034B000A4FB002204213046FDF79FFB00220821D7
:1034C0003046FDF79AFB34B1012C07D0022C2FD0E7
:1034D000032C08D12FE00122114601E00122022134
:1034E0003046FDF78AFB0220FFF7CAF8102130466C
:1034F000FDF77EFB012821D020213046FDF778FB27
:1035000001281ED04FF480713046FDF771FB012871
:103510001BD04FF400713046FDF76AFB012818D02C
:10352000641CE4B2042CBAD30120FFF7A9F8AEE77B
:1035300001220421D4E701220821D1E717F8240051
:103540000AE007EB8400407806E007EB840080780F
:1035500002E007EB8400C0788DF8000000231A46D3
:103560006946E86900F008FADEE70000000802405A
:10357000000000206A4100086420FFF781F8FEF790
:103580006DFDFEF7EDFC012103A20846FEF7FAFDF2
:103590006420FFF775F8F6E748656C6C6F204D798D
:1035A000467269656E6421003220FFF769F8FBE717
:1035B0003220FFF765F8FBE701490120C861704739
:1035C0003400002010B50C4650B109490968183183
:1035D000FFF78AFD2046BDE810400121FFF7FEB845
:1035E000502080F31188BFF34F8FBFF36F8FFEE73A
:1035F0003400002070B514460D4668B10A490968C8
:103600001831FFF789FD0CB14FF0FF3521462846F0
:10361000BDE87040FFF7E2B8502080F31188BFF397
:103620004F8FBFF36F8FFEE73400002030B587B0B7
:103630000024039405AA04A903A80494FFF730FD0D
:10364000DDE903010094CDE90110002315A117481D
:10365000059A00F0A4FB164D0028E8621FD000F088
:103660001BFD012809D0401C19D1502080F311887E
:10367000BFF34F8FBFF36F8FFEE7502080F31188A9
:10368000BFF34F8FBFF36F8F4FF0FF30A862012061
:103690006861EC6007B0BDE8304000F045B807B0A5
:1036A00030BD000049444C4500000000752A000868
:1036B000340000200248016B491C01637047000080
:1036C00034000020164810B5016B11B10121C16111
:1036D00010BD0021C1610169124A01E0B9B1491E62
:1036E00001EB810352F82330002BF7D001EB81036B
:1036F00002EB830202F1080453685B685360A34243
:1037000001D15B685360DA680260016110BD50202E
:1037100080F31188BFF34F8FBFF36F8FFEE7000078
:10372000340000201C0300201CB537480168374ACC
:10373000914207D1502080F31188BFF34F8FBFF320
:103740006F8FFEE700683149491E884207D150203B
:1037500080F31188BFF34F8FBFF36F8FFEE72C49C3
:1037600008780190FF20087008788DF800009DF817
:1037700000009DF8002000F0F000904207D050209B
:1037800080F31188BFF34F8FBFF36F8FFEE79DF873
:103790000000204C00F0500020700720A06005E0E1
:1037A0009DF8002052008DF80020401E9DF800205A
:1037B0001206F5D4A060032807D0502080F31188AA
:1037C000BFF34F8FBFF36F8FFEE74FF44070A060E1
:1037D000019808700C482030016841F470010160C4
:1037E000016841F070410160FFF708FD0020606052
:1037F000FCF744FD0848016841F040410160FCF7D6
:1038000029FD00201CBD000000ED00E071C20F4149
:1038100000E400E0A800002034EF00E010B55020E4
:1038200080F31188BFF34F8FBFF36F8F00F0F6FA6C
:1038300018B104494FF080500860002080F31188CF
:1038400010BD000004ED00E0F8B517460E46050077
:1038500013D005FB06F05030FFF78AFB04000AD0B6
:10386000002084F8460004F150023B4631462846C9
:103870000094FFF72FF92046F8BD502080F31188FF
:10388000BFF34F8FBFF36F8FFEE738B5049D18B1BC
:1038900053B1CAB181B120E0502080F31188BFF349
:1038A0004F8FBFF36F8FFEE7502080F31188BFF377
:1038B0004F8FBFF36F8FFEE7502080F31188BFF367
:1038C0004F8FBFF36F8FFEE739B1502080F311881F
:1038D000BFF34F8FBFF36F8FFEE750241C460123C9
:1038E00084F846302B460094FFF7F4F8204638BDA4
:1038F00070B50D46040025D0FFF71AFCD4E90F205F
:10390000216802FB0011A1600021A16321686160B0
:103910000A46D4E90F01401E00FB0121E160214667
:103920004FF0FF3001F8440F487004F110008DB1E2
:10393000FFF7CCFB04F12400FFF7C8FBFFF718FCEE
:10394000012070BD502080F31188BFF34F8FBFF36B
:103950006F8FFEE721690029F0D000F003FB0028FB
:10396000ECD004494FF080500860BFF34F8FBFF395
:103970006F8FE3E704ED00E02DE9FF4782B01D46BD
:103980008A464FF00008040003D0BAF1000F08D0B7
:1039900011E0502080F31188BFF34F8FBFF36F8F7A
:1039A000FEE7206C38B1502080F31188BFF34F8FB1
:1039B000BFF36F8FFEE7022D0AD1E06B012807D01D
:1039C000502080F31188BFF34F8FBFF36F8FFEE756
:1039D00000F010FA3F4F4FF000094FF0805648B901
:1039E000049838B1502080F31188BFF34F8FBFF394
:1039F0006F8FFEE7FFF79CFBA06BE16B884207D35C
:103A0000022D05D00498D0B1B8F1000F1AD01EE0F5
:103A10002A4651462046FEF7B6FF616A19B104F105
:103A2000240000F09FFA20B13E60BFF34F8FBFF338
:103A30006F8FFFF79DFB012006B0BDE8F087FFF711
:103A400097FB22E06846FFF771FC4FF00108FFF793
:103A50008FFBFFF72FFEFFF76BFB94F94400401C30
:103A600001D184F8449094F94500401C01D184F8B8
:103A70004590FFF77DFB04A9684600F029F930B1B5
:103A80002046FFF73FFA00F0A5FA0020D4E7FFF741
:103A90004FFBA06BE16B884213D1FFF769FB04F188
:103AA00010000499FFF78EFD2046FFF72BFA00F077
:103AB00091FA00289ED13E60BFF34F8FBFF36F8F06
:103AC00098E7FFF755FB2046FFF71CFA00F082FA53
:103AD00090E7000004ED00E02DE9F0471F46904616
:103AE0008946040003D0B9F1000F08D011E050203E
:103AF00080F31188BFF34F8FBFF36F8FFEE7206C09
:103B000038B1502080F31188BFF34F8FBFF36F8F10
:103B1000FEE7022F0AD1E06B012807D0502080F386
:103B20001188BFF34F8FBFF36F8FFEE7FFF778FB6E
:103B30005020EFF3118680F31188BFF34F8FBFF34E
:103B40006F8FA06BE16B884206D3022F04D0002058
:103B500086F31188BDE8F08794F94550A06B3A468A
:103B600049462046FEF70FFF681C04D06D1C84F800
:103B700045500120ECE7606A0028FAD004F12400E7
:103B800000F0F0F90028F4D0B8F1000FF1D00121D5
:103B9000C8F80010EDE700002DE9F747002683B0D4
:103BA0008A46040003D0BAF1000F08D011E050207B
:103BB00080F31188BFF34F8FBFF36F8FFEE7206C48
:103BC00038B1502080F31188BFF34F8FBFF36F8F50
:103BD000FEE700F00FF9DFF8F4804FF000094FF036
:103BE000805748B9059838B1502080F31188BFF349
:103BF0004F8FBFF36F8FFEE7FFF79AFAA56BC5B142
:103C000051462046FEF7ACFE6D1EA563206950B1FB
:103C100004F1100000F0A6F928B1C8F80070BFF355
:103C20004F8FBFF36F8FFFF7A3FA012006B0BDE8F7
:103C3000F087059808B11EB106E0FFF799FA27E072
:103C40006846FFF773FB0126FFF792FAFFF732FD94
:103C5000FFF76EFA94F94400401C01D184F84490B7
:103C600094F94500401C01D184F84590FFF780FA93
:103C700005A9684600F02CF8002820460AD0FFF776
:103C800041F900F0A7F92046FEF7D0FF0028B3D095
:103C90000020CBE7FEF7CAFF90B104F1240005999C
:103CA000FFF790FC2046FFF72DF900F093F900286C
:103CB000A2D1C8F80070BFF34F8FBFF36F8F9BE79F
:103CC0002046FFF71FF900F085F995E704ED00E0C5
:103CD0002DE9F0410C46050011D0C4B1FFF728FAD8
:103CE000174BDA686E682068911B471C17D02F6845
:103CF0001B6A9F4219D0964217D8012410E0502029
:103D000080F31188BFF34F8FBFF36F8FFEE7502012
:103D100080F31188BFF34F8FBFF36F8FFEE700244E
:103D2000FFF726FA2046BDE8F081884205D9401AFF
:103D300020602846FFF7FAFAF1E700202060DCE770
:103D4000340000202DE9FF5F8346DDE90E879946A8
:103D500016468A469000FFF70BF905001CD05C2040
:103D6000FFF706F9040014D00020256384F85900F9
:103D7000CDE90240CDE900874B46324651465846D0
:103D8000FEF7BAFE2046FEF757FD012004B0BDE85D
:103D9000F09F2846FFF700FA4FF0FF30F6E7F0B546
:103DA00085B0DDE90B640A9DA6B1DCB15C27009704
:103DB0002663022684F85960002604AFCDE9024646
:103DC000CDE90057FEF798FE2046FEF735FD049832
:103DD00005B0F0BD502080F31188BFF34F8FBFF3C3
:103DE0006F8FFEE7502080F31188BFF34F8FBFF332
:103DF0006F8FFEE70548416919B1006B18B10020CB
:103E000070470120704702207047000034000020F6
:103E10000148C06870470000340000202DE9F041DF
:103E20002E4C0027206B28B1A069401CA0613846A9
:103E3000BDE8F081E668761CE66013D1606B00682F
:103E400038B1502080F31188BFF34F8FBFF36F8FCD
:103E5000FEE7606BA16B6163A063206A401C206277
:103E6000FEF7D0FFA06ADFF87880864209D3606B46
:103E70000068A0B1606BC068C5686868864211D2EE
:103E8000A0622068C06A00EB800158F82100012878
:103E900000D90127E0690028C9D00127C7E74FF002
:103EA000FF30EDE7281DFFF7E7F8A86A18B105F124
:103EB0001800FFF7E1F8E86A2169884200D920611B
:103EC00000EB800108EB8100291DFFF725F9E86A66
:103ED0002168C96A8842CAD30127C8E73400002094
:103EE0001C03002070B504004FF0000133D01B4DBF
:103EF0002868844207D0502080F31188BFF34F8F89
:103F0000BFF36F8FFEE7206D38B1401E2065E36C74
:103F1000E26A9A421FD040B11DE0502080F3118820
:103F2000BFF34F8FBFF36F8FFEE7201DFFF7A4F89D
:103F3000E06CE062C0F13800A061E06A2969884263
:103F400000D92861064900EB800001EB8000211DAB
:103F5000FFF7E2F80121084670BD000034000020A0
:103F60001C03002070B5C068C46854B104F1180087
:103F70000646FFF781F8144D286B50B131461348BF
:103F800015E0502080F31188BFF34F8FBFF36F8F80
:103F9000FEE7201DFFF770F8E06A2969884200D922
:103FA00028610B4900EB800001EB8000211DFFF729
:103FB000B3F8E06A2968C96A884202D90120E86139
:103FC00070BD002070BD000034000020A407002058
:103FD0001C0300202DE9F0472C4D00242746286BB8
:103FE00038B1FFF7A5F8286B401E2863286B40B155
:103FF00046E0502080F31188BFF34F8FBFF36F8FDF
:10400000FEE7A968224E0120D1B3A6F5916980464A
:104010003068E0B1F068C46804F11800FFF72CF8CC
:10402000201DFFF729F8E06A2969884200D9286134
:1040300000EB800109EB8100211DFFF76DF8E06ABC
:104040002968C96A8842E3D3C5F81C80E0E70CB14F
:10405000FEF7D8FEAC694CB14FEA0806FFF7DEFE6A
:1040600000B1EE61641EF9D10020A861E86938B1A1
:104070000849012738070860BFF34F8FBFF36F8FE0
:10408000FFF776F83846BDE8F087000034000020DE
:10409000A407002004ED00E010B586B0FEF734FC64
:1040A000114C2068B8B100200390049005AA04A91F
:1040B00003A8FEF7FFFFDDE9032102208DE80700DA
:1040C00000230AA10B48059AFFF769FE606010B152
:1040D00006B0012010BD502080F31188BFF34F8F30
:1040E000BFF36F8FFEE7000070000020546D722058
:1040F00053766300E12E00082DE9FF411E4613466A
:1041000002000A9D4FF0000016D0144C2768002FC3
:104110000FD0CDE900130292062917DAFFF76AFEE5
:1041200002284FF000030FD0002269462068FFF7F5
:1041300023FC04B0BDE8F081502080F31188BFF368
:104140004F8FBFF36F8FFEE72A46EEE7002332461C
:1041500069463846FFF7C0FCEBE70000700000201E
:104160004FF04070E1EE100A704731323341343580
:104170003642373839432A3023440000000000001B
:1041800000000000000000000000000000F8000037
:104190000000000000333000000000100C06100C7E
:1041A0000600000000000000000040C07840C07819
:1041B0004000043F04043F040400007088FC083001
:1041C0000000001820FF211E0000F008F000E01899
:1041D000000000211C031E211E0000F00888700052
:1041E00000001E2123241927211010160E000000A4
:1041F00000000000000000000000000000E01804C3
:104200000200000000071820400000020418E0002F
:1042100000000040201807000000404080F080406F
:1042200040000202010F01020200000000F0000045
:1042300000000101011F0101010000000000000059
:10424000000080B0700000000000000000000000CE
:104250000000000101010101010100000000000057
:10426000000000303000000000000000000080600E
:104270001804006018060100000000E01008081093
:10428000E000000F102020100F00001010F80000B8
:1042900000000020203F202000000070080808884F
:1042A000700000302824222130000030088888481F
:1042B00030000018202020110E000000C02010F84F
:1042C000000000070424243F240000F80888880820
:1042D00008000019212020110E0000E01088881825
:1042E0000000000F112020110E0000380808C83807
:1042F00008000000003F00000000007088080888E7
:104300007000001C222121221C0000E0100808106F
:10431000E0000000312222110F00000000C0C000A8
:1043200000000000003030000000000000800000AD
:1043300000000000806000000000000080402010AD
:1043400008000001020408102000404040404040A6
:104350004000040404040404040000081020408009
:10436000000000201008040201000070480808083E
:10437000F0000000003036010000C030C828E8100E
:10438000E0000718272423140B000000C038E000C9
:104390000000203C23020227382008F88888887013
:1043A0000000203F202020110E00C030080808081F
:1043B0003800071820202010080008F80808081006
:1043C000E000203F202020100F0008F88888E8082F
:1043D0001000203F20202320180008F88888E808D3
:1043E0001000203F200003000000C03008080838FB
:1043F000000007182020221E020008F8080000080C
:10440000F808203F210101213F20000808F8080892
:1044100000000020203F2020000000000808F808CD
:104420000800C08080807F00000008F888C028183D
:104430000800203F20012638200008F8080000006E
:104440000000203F20202020300008F8F800F8F875
:104450000800203F003F003F200008F830C000085F
:10446000F808203F200007183F00E0100808081057
:10447000E0000F10202020100F0008F8080808089E
:10448000F000203F210101010000E01008080810A1
:10449000E0000F18242438504F0008F888888888D6
:1044A0007000203F2000030C3020007088080808AE
:1044B00038000038202121221C00180808F80808BC
:1044C00018000000203F2000000008F80800000845
:1044D000F808001F202020201F000878880000C84E
:1044E0003808000007380E010000F80800F800083E
:1044F000F800033C0700073C030008186880806848
:10450000180820302C03032C30200838C800C83885
:1045100008000000203F2000000010080808C838EC
:1045200008002038262120201800000000FE02028A
:1045300002000000007F40404000000C30C000003E
:104540000000000000010638C00000020202FE0068
:104550000000004040407F00000000000402020212
:104560000400000000000000000000000000000047
:104570000000808080808080808000020204000033
:10458000000000000000000000000000808080802B
:1045900000000019242222223F2008F80080800019
:1045A0000000003F112020110E00000000808080DC
:1045B0000000000E112020201100000000808088E3
:1045C000F800000E112020103F2000008080808025
:1045D0000000001F222222221300008080F0888821
:1045E00088180020203F202000000000808080806C
:1045F0008000006B94949493600008F800808080A1
:104600000000203F210000203F20008098980000FB
:1046100000000020203F202000000000008098982B
:10462000000000C08080807F000008F800008080CB
:104630008000203F24022D302000000808F80000F0
:1046400000000020203F20200000808080808080AB
:104650008000203F20003F20003F8080008080803D
:104660000000203F210000203F200000808080804B
:104670000000001F202020201F008080008080007C
:10468000000080FFA12020110E000000008080802B
:104690008000000E112020A0FF808080800080809C
:1046A000800020203F2120000100000080808080C9
:1046B00080000033242424241900008080E08080BE
:1046C00000000000001F202000008080000000800B
:1046D0008000001F202020103F208080800000806C
:1046E000808000010E30080601008080008000807C
:1046F00080800F300C030C300F0000808000808021
:1047000080000020312E0E3120008080800000804B
:10471000808080818E7018060100008080808080FB
:1047200080000021302C2221300000000000807C1D
:10473000020200000000003F404000000000FF00B7
:10474000000000000000FF0000000002027C80006A
:1047500000000040403F000000000006010102028E
:10476000040400000000000000000000C44800082D
:104770000000000000000000000000000000000039
:10478000000200001800000000000000000000000F
:104790008C4800080000000000000000000000003D
:1047A00000000000000200000800000000000000FF
:1047B0000000000094480008000000000000000015
:1047C00000000000000000000002000008000000DF
:1047D00000000000000000009C48000800000000ED
:1047E00000000000000000000000000000020000C7
:1047F000080000000000000000000000D048000891
:1048000000000000000000000000000000000000A8
:10481000000200000800000000000000000000008E
:10482000D848000800000000000000000000000060
:10483000000000000002000008000000000000006E
:1048400000000000B4480008000000000000000064
:10485000000000000000000000000000A448000864
:104860000000000000000000000000000000000048
:10487000000000000000000000000000010203042E
:104880000607080900000000010203044D656E756B
:10489000310000004D656E75320000004D656E758B
:1048A00033000000784B657956616C75655175650C
:1048B00075650000784B6579496E7451756575654D
:1048C0000000000064656661756C745461736B0070
:1048D0004B65795363616E004B657950726F636508
:1048E000737300000449000800000020B4000000B9
:1048F000D0010008B8490008B40000205C51000055
:10490000EC010008000000000000000000000000B2
:104910000000000000000000000000000000000097
:104920000000000000000000010000001000000076
:10493000000000000024F40000000000000000005F
:104940000000000000000000000000000000000067
:104950000000000000000000000000000000000057
:104960000000000000000000000000000000000047
:104970000000000000000000000000000000000037
:104980000000000000000000000000000000000027
:104990000000000000000000000000000000000017
:1049A0000000000000000000000000000000000007
:0849B000AAAAAAAA0000000057
:040000050800019559
:00000001FF
